:020000040800F2
:10000000F80B0020450100082B1B00086D190008A3
:10001000291B000845030008411C000800000000DF
:100020000000000000000000000000007D1B000830
:1000300089030008000000002D1B0008C11B0008F8
:100040005F0100085F0100085F0100085F01000810
:100050005F0100085F0100085F0100085F01000800
:100060005F0100085F0100085F0100085F010008F0
:100070005F0100085F0100085F0100085F010008E0
:100080005F0100085F0100085F010008291C0008EB
:10009000351C00085F0100085F0100085F010008CF
:1000A0005F0100085F0100085F0100085F010008B0
:1000B0005F0100085F0100085F0100085F010008A0
:1000C0005F0100085F0100085F0100085F01000890
:1000D0005F0100085F0100085F0100085F01000880
:1000E0005F0100085F0100085F0100085F01000870
:1000F0005F0100085F0100085F0100085F01000860
:100100005F0100085F0100085F0100085F0100084F
:100110005F0100085F0100085F0100085F0100083F
:100120005F0100085F0100085F0100085F0100082F
:10013000DFF80CD000F02AF800480047411E000804
:10014000F80B00200648804706480047FEE7FEE718
:10015000FEE7FEE7FEE7FEE7FEE7FEE7FEE7FEE777
:10016000251C000831010008D2B201E000F8012B83
:10017000491EFBD270470022F6E710B513460A4627
:1001800004461946FFF7F0FF204610BD064C074D08
:1001900006E0E06840F0010394E807009847103457
:1001A000AC42F6D3FFF7C8FF90220008B022000847
:1001B00070B58C1810F8015B15F0070301D110F829
:1001C000013B2A1106D110F8012B03E010F8016B56
:1001D00001F8016B5B1EF9D12B0705D40023521ED9
:1001E0000DD401F8013BFAE710F8013BCB1A921C41
:1001F00003E013F8015B01F8015B521EF9D5A1423F
:10020000D8D3002070BD000070B504460068816836
:10021000C943C9071CD1816821F00101816000F048
:10022000A7FF05460FE000BF00F0A2FF401B022819
:1002300009D9A06A40F01000A062E06A40F0010015
:10024000E062012070BD20688068C043C007EBD029
:10025000002070BDF8B5002604460096006881684D
:10026000C943C90728D0816841F001018160134862
:1002700013490068B0FBF1F000E0401E0090002838
:10028000FBD100F075FF054611E000BF00F070FFE4
:10029000401B02280BD9A06A40F01000A062E06A5F
:1002A00040F00100E06284F824600120F8BD20687D
:1002B0008068C043C007E9D10020F8BD38020020A3
:1002C00040420F0000228021014800F04CBF000096
:1002D0000008014001228021014800F044BF0000D5
:1002E0000008014000221021014800F03CBF00003E
:1002F0000010014001221021014800F034BF00002D
:100300000010014000221021014800F02CBF000025
:100310000008014001221021014800F024BF000024
:100320000008014000220421014800F01CBF000029
:100330000008014001220421014800F014BF000020
:1003400000080140FEE7000000220421014800F0FF
:100350000ABF00000010014001220421014800F002
:1003600002BF00000010014000220221014800F0FD
:10037000FABE00000008014001220221014800F0FD
:10038000F2BE0000000801407047000000224FF458
:100390008061014800F0E7BE001001400122910297
:1003A000014800F0E0BE000000100140F8B5002454
:1003B000009490F824202546012A12D0012280F8CA
:1003C00024204A681F23072A0DD20668776B521E25
:1003D00002EB820293409F430B6893401F43776375
:1003E00019E00220F8BD06680D2A0AD2376BD21F29
:1003F00002EB820293409F430B6893401F43376395
:1004000009E0F76A0D3A02EB820293409F430B68C2
:1004100093401F43F7620A68072306680A2A0AD333
:10042000F7680A3A02EB420293409F438B6893407D
:100430001F43F76008E0376902EB420293409F4395
:100440008B6893401F4337610A68102A01D0112A34
:1004500020D1124B02689A4217D193681B0219D41B
:10046000936843F4000393600968102912D10C4982
:100470000C4A0968B1FBF2F101EB8101490000E08F
:10048000491E00910029FBD104E0816A41F020015E
:100490008162012480F824502046F8BD00240140E8
:1004A0003802002040420F000068C06C7047000016
:1004B0002DE9F04104004FF000057FD0A06A00262E
:1004C00028B9E66284F82460204600F081F82046CE
:1004D000FFF79AFEA16AC90600D420B1A06A40F0D5
:1004E0001000A0626AE0A16A21F4885141F0020183
:1004F000A162334923688B42E16904D1B1F5402FF1
:1005000001D14FF40021277B4FF4807C41EA470260
:1005100061680A43A168614508D0012906D000211D
:1005200094F814E0BEF1010F02D00AE06146F7E74B
:10053000C7B1A76A47F02007A762E76A47F001073B
:10054000E7625F6827F469470F435F602368996833
:100550001C4F394011439960A16861450BD00129B6
:1005600009D00CE0DFF860E0A7690EEB47370F43D6
:1005700047F40061E5E7218A0D05A5F5801521689E
:10058000CB6A23F470032B43CB62216889680F4B3D
:100590001940914208D1E662A16A21F0020141F0BE
:1005A0000101A162BDE8F081A06A20F0020040F0E4
:1005B0001000A062E06A40F00100E0620120F1E773
:1005C000003C0140FDF7E1FF00E0FFFFFE0E1FFFD2
:1005D00000B585B0002100910191029103911C4B5F
:1005E00002681C4803219A4215D1826942F40072C4
:1005F0008261826902F400720492826942F0080208
:100600008261806900F0080004900120CDE90001BA
:100610006946114817E0114B9A4216D1826942F49B
:1006200080628261826902F480620492826942F08F
:1006300004028261806900F0040004900820CDE982
:1006400000016946064800F08DFC05B000BD0000C1
:100650000024014000100240000C0140002801402D
:10066000000801402DE9F84300260D460446009697
:1006700000F07EFD804620688168C90508D5A06A23
:1006800040F02000A06284F824600120BDE8F883D7
:100690004168C90503D4C06A10F4700F26D0022047
:1006A00000F004FE38490968B1FBF0F720680369DF
:1006B00036490B424FEA61014FEAA1121BD1C368D0
:1006C0004FEA611C13EA0C0F15D103690B4221D1CB
:1006D000C06810421ED114201FE0681C06D045B32C
:1006E00000F046FDA0EB0800A84222D82068006870
:1006F0008007F2D52AE003690B4202D1C16811429A
:1007000006D0026922490A4206D1C068084203D1D4
:10071000542002E0292000E0FC204743009813E029
:10072000681C0ED02DB100F023FDA0EB0800A842FC
:1007300007D9A06A40F00400A06284F82460032076
:10074000A4E70098401C0090B842E9D321686FF0FC
:1007500012000860A06A40F40070A06220688068FF
:10076000C0F3424007280CD1207B50B9A06A20F486
:100770008070A062A06AC00403D4A06A40F00100A7
:10078000A062002082E70000380200202449922461
:100790004992240070B5044690F8240001280DD039
:1007A000012084F824002046FFF754FD02004FF09A
:1007B000000005D084F82400104670BD022070BDF2
:1007C000A16A40F20123994341F48071A1621F4D57
:1007D00023681F49AB4218D10E6816F4702F14D04D
:1007E000A66A46F48016A6620E68760505D5A66A46
:1007F00026F4005646F48056A662A66AF6040AD588
:10080000E66A26F00606E66206E0A66A26F4801688
:10081000A6625E68E9E7E06284F824006FF00200F7
:10082000186020688368C3F34243072B05D1A842B0
:1008300008D1096811F4702F04D0816841F4801147
:100840008160B9E7816841F4A001F9E7002801401F
:100850000424014010B5044690F82400012807D074
:10086000012084F824002046FFF7CEFC10B107E0F9
:10087000022010BDA16A21F4885141F00101A1625A
:10088000002184F8241010BDF0B590F820500468C1
:10089000A468012D05D0022D03D0416A41F48021C6
:1008A00053E014F0406F01D1E5004BD5C4F301646F
:1008B000022C03D9416A41F4000146E00125A5401C
:1008C0001D608D684FF4C0739DB1CE6835434E688E
:1008D00045EAC605066803EB0417F5514FF4C275E7
:1008E000076805EB04150E697E51097D012905D0C5
:1008F00009E00E88CD6845EA4655EBE701684E5998
:1009000046F480764E511179D2F805504FF4C676F0
:1009100041EA0525016806EB04168D511178D2F8DD
:1009200001204FF4C47541EA0221026805EB041569
:100930005151006803EB0411425842F00102425049
:100940000020F0BD416A41F4001141620120F0BD78
:1009500010B590F820300268012B07D0022B05D08B
:10096000416A41F480214162012010BDD2F80002A9
:1009700040F00100C2F80002087D00F01F030120D2
:100980009840D2F81C328343C2F81C32CB69B3B909
:10099000D2F80C328343C2F80C328C894B6864F372
:1009A0001F434C6902EBC404C4F840320C890B6845
:1009B00064F31F434C6902EBC404C4F84432CB69AE
:1009C000012B16D1D2F80C320343C2F80C320C883A
:1009D0004B6864F31F434C6902EBC404C4F8403213
:1009E0000C89CB6864F31F434C6902EBC404C4F860
:1009F00044328B69002BD2F804320FD053EA000343
:100A0000C2F804320B69002BD2F8143208D0034329
:100A1000C2F81432096A012904D008E08343EFE7E1
:100A20008343F5E7D2F81C120143C2F81C12D2F836
:100A3000000220F00100C2F80002002010BD704743
:100A400030B590F82040012C05D0022C03D0416A2B
:100A500041F480215DE00468002955D02469A40791
:100A600054D04FF4D874056804EB01142D5915F0D7
:100A70000405956005682D594ED0ED085560056850
:100A80002C5904F00204D4604FF4DA74056804EBC6
:100A900001142D5905F00F05156105682D59C5F391
:100AA0000725956105682C59240C54614FF4DC72BC
:100AB000046802EB0112A4581C700468A458240AAC
:100AC0005C700468A458240C9C700468A258120E30
:100AD000DA704FF4DE72046802EB0112A4581C7144
:100AE0000468A458240A5C710468A458240C9C71FE
:100AF0000468A258120EDA71006881B1016941F0F0
:100B000020010161002030BDE468A8E7416A41F49A
:100B100000114162012030BD6D0D1560AFE7C16865
:100B200041F02001C160EDE72DE9F05F0546006866
:100B300000244669D0F804908768D0F80CB0D0F84B
:100B400010A0D0F81880F10748D0F90714D001217F
:100B50008160B80703D5284600F0EBF90CE0780770
:100B600002D54FF4006407E0380702D54FF48054F3
:100B700002E0284600F0DCF9F80516D529684FF4A4
:100B800080708860B80503D5284600F0D4F90CE0E1
:100B9000780502D544F4005407E0380502D544F442
:100BA000804402E0284600F0C5F9F80316D529680C
:100BB0004FF480308860B80303D5284600F0BDF9B3
:100BC0000CE0780302D544F4004407E0380302D572
:100BD00044F4803402E0284600F0AEF9300707D52F
:100BE0005FEACB6004D52968102044F40074C86023
:100BF00070074FF0080707D55FEA0B7004D5286827
:100C0000C760284600F062F9B00706D52868C068BA
:100C1000800702D0284600F05AF9700607D55FEA2F
:100C2000CA6004D52968102044F480640861B006C5
:100C300007D55FEA0A7004D528680761284600F0E6
:100C400047F9F00606D528680069800702D02846D3
:100C500000F03FF9B00308D55FEAC96005D52968FF
:100C600010204860284600F035F9F00307D55FEA08
:100C7000097004D528684760284600F05FF9300401
:100C800046D55FEA497040D5F00504D55FEAC870E3
:100C900001D044F00104B00504D55FEA887001D5A5
:100CA00044F00204700504D55FEA487001D544F0B1
:100CB0000404300529D518F0700F26D008F0700014
:100CC000402815D006DC102809D020280AD030286A
:100CD00016D10AE050280ED0602811D10EE044F061
:100CE00008040DE044F010040AE044F0200407E09A
:100CF00044F0400404E044F0800401E044F48074D3
:100D00002868816921F070018161296804204860A8
:100D1000002C05D0686A204368622846FFF78FFEE2
:100D2000BDE8F09F70B5040003D094F8200010B126
:100D300004E0012070BD204600F082F820680168C0
:100D400021F00201016000F013FA0546052604E0D7
:100D500000F00EFA401B0A2811D82068406880076E
:100D6000F6D42068016841F00101016000F000FA4A
:100D700005460BE000F0FCF9401B0A2806D9606A22
:100D800040F40030606284F82060D2E72068406858
:100D9000C007EFD0207E0128206801683DD021F0F7
:100DA00080010160607E01282068016838D021F050
:100DB00040010160A07E01282068016833D021F045
:100DC00020010160E07E0128206801682ED041F0FA
:100DD00010010160207F01282068016829D021F0DE
:100DE00008010160607F01282068016824D021F09B
:100DF00004010160D4E902010843D4E9041211435B
:100E000008436168491E08432168C8610020606288
:100E1000012084F82000002070BD41F08001C0E76F
:100E200041F04001C5E741F02001CAE721F010017F
:100E3000CFE741F00801D4E741F00401D9E7000011
:100E400010B586B0002100910191029103910068D4
:100E50001B49884232D11B48C16941F00071C16110
:100E6000C16901F000710491816941F0040181615F
:100E70008069154C00F0040004904FF4006000906D
:100E80006946204600F06EF8A01400900220019000
:100E9000032003906946204600F064F800221146C2
:100EA000132000F0D1F9132000F0C0F90022114600
:100EB000142000F0C9F9142000F0B8F906B010BDF4
:100EC0000064004000100240000801407047704775
:100ED000704770477047000070B5044690F82000D6
:100EE000012804D0606A40F40020606218E002200B
:100EF00084F820002068016821F00101016000F001
:100F000037F905460EE000BF00F032F9401B0A2811
:100F100008D9606A40F400306062052084F820003F
:100F2000012070BD20684068C007EDD1606270BDCF
:100F300070477047704770477047704770470000B0
:100F400070B5044600F014F90546601C02D0044850
:100F50000078044400F00CF9401BA042FAD370BDA5
:100F60002C0200202DE9F84FDFF8C891002409F188
:100F7000040A0AF1040B23460F270BF1040ED1E0FB
:100F80000125A54006EA0502AA4276D1DFF8A8C1EC
:100F90004E68A6EB0C0866452BD00DDC032E34D032
:100FA00005DC36B3012E19D0022E2FD11BE0112EF5
:100FB00016D0122E2AD119E0B8F5881F19D006DCF8
:100FC000B8F5803F15D0B8F5801F1FD111E0B8F5F6
:100FD000001F0ED0B8F5041F18D10AE0CB6815E049
:100FE000CB681B1D12E0CB6808330FE0CB680C33D5
:100FF0000CE08B682BB1012B4FF0080303D0456147
:1010000004E0042302E0056100E00023FF2A01D888
:10101000064601E000F104064FEA840501D9A5F176
:101020002005D6F8008007FA05FC28EA0C0803FA28
:1010300005F548EA0508C6F800804D68ED0070D552
:101040003E4DAE6946F00106AE61AD6924F003067F
:1010500005F0010500953A4D06EB050CDCF808504B
:10106000A607360F07FA06F825EA0805DFF8D48048
:10107000404503D14FF0000825E052E0DFF8C8807A
:10108000404502D14FF001081DE0DFF8C080404527
:1010900002D14FF0020816E0DFF8B480404502D1DB
:1010A0004FF003080FE0DFF8AC80404502D14FF06D
:1010B000040808E0DFF8A080404502D14FF00508A1
:1010C00001E04FF0060808FA06F848EA0508CCF8EF
:1010D00008804D68D9F80060ED034D4601D51643F0
:1010E00000E096432E604D68DAF80060AD03554687
:1010F00001D5164300E096432E604D68DBF8006092
:10110000ED025D4601D5164300E096432E604D6822
:10111000DEF80060AD02754601D5164300E0964347
:101120002E60641C0A681646E2407FF429AFBDE8D1
:10113000F88F000000040140000011100010024070
:101140000000014000080140000C01400010014077
:101150000014014000180140001C01408068084054
:1011600000D0012070470AB1016170470904FBE714
:1011700001488068704700002C0200200248816806
:1011800002781144816070472C020020074810B596
:10119000016841F010010160032000F075F80020A3
:1011A00000F006F800F024F8002010BD00200240F6
:1011B00070B50D4D04464FF47A712878B1FBF0F00C
:1011C0000A490968B1FBF0F000F0BCFB48B9102CEB
:1011D00007D200222146501E00F036F800206C6035
:1011E00070BD012070BD00002C02002038020020DC
:1011F0000C4808B5816941F001018161816901F004
:1012000001010091C16941F08051C161C06900F0E4
:10121000805000900448416821F0E06141F0007185
:10122000416008BD0010024000000140002809DBB9
:1012300000F01F02012191404009800000F1E020F0
:10124000C0F8001170470000F0B40E4B1B680C464C
:10125000C3F30223C3F10705042D00D90425191D8A
:10126000072901D2002300E0DB1E012606FA05F162
:10127000491E214099409E40761E16403143F0BCE5
:1012800000F000BD0CED00E0064900F00702086820
:101290004FF6FF03184040EA0220034A104308605B
:1012A000704700000CED00E00000FA0510B52CA41A
:1012B00001461DCC86B08DE81D002DA02D4C006888
:1012C0000490002004292FD00BDC01292FD0022903
:1012D00028D100F061F96168C1F38131491C4900EE
:1012E0001EE0082920D010291CD161682268D20193
:1012F00018D5C1F38342C9031DF8020009D56168FE
:1013000004AAC1F34041515C1B4AB2FBF1F14843CE
:1013100001E01A4948436168490203D440000321AF
:10132000B0FBF1F006B010BD00F046F9FAE7226A12
:10133000C2F30121012903D1920701D5C803F1E7C6
:10134000022905D1626A920702D549F64040E9E7D1
:101350000329E7D121688903E4D54FF22440E1E76E
:1013600002030405060708090A0B0C0D0E0F1010E6
:10137000010200000010024000127A0000093D0046
:101380002DE9F84305460078354CC00754D0E06994
:101390000026C00008D4E06940F08050E061E069B8
:1013A000012600F0805000902E480168C90512D433
:1013B0000168804641F480710160FFF7D9FE07465D
:1013C00005E000BFFFF7D4FEC01B642823D8D8F87F
:1013D0000000C005F6D5206A10F4407021D0A9881D
:1013E00001F4407181421CD0206A1F49012220F47F
:1013F00040700A6000220A602062C00711D0FFF727
:10140000B7FE074641F2883808E000BFFFF7B0FE9C
:10141000C11B414502D90320BDE8F883206A80073B
:10142000F4D5206A696820F44070084320621EB138
:10143000E06920F08050E0612878800705D5606879
:10144000A96820F44040084360602878C00605D5AC
:101450006068696920F48000084360600020DBE771
:101460000010024000700040400442422DE9F04765
:101470000F46050061D0434E306800F00700B842C7
:1014800009D2306820F0070038433060306800F03F
:101490000700B84251D128683B4C810712D540075C
:1014A00003D5606840F4E06060602878000703D5E9
:1014B000606840F4605060606068A96820F0F000E7
:1014C000084360602878C00728D06868012810D0D9
:1014D0002168022810D0890700292EDA616821F0DE
:1014E000030101436160FFF743FE804641F2883902
:1014F0000DE021688903EFE78901EDE7FFF738FE8A
:10150000A0EB0801494502D90320BDE8F0876068D7
:10151000696800F00C00B0EB810FEFD1306800F08B
:101520000700B8420BD9306820F00700384330601C
:10153000306800F00700B84201D00120E5E72878C4
:10154000400705D56068E96820F4E0600843606002
:101550002878000706D56068296920F4605040EAC1
:10156000C100606000F028F86168084AC1F3031107
:10157000515CC8400649086006480068FFF718FE3D
:101580000020C2E70020024000100240782200083C
:1015900038020020300200200448054900684968EC
:1015A000044AC1F3C221515CC84070473802002090
:1015B000001002408822000812A185B00FC98DE8F2
:1015C0000F0014A0144A006804905168134801F0F9
:1015D0000C03042B10D0082B0ED1C1F38343C90395
:1015E0001DF803000AD5516804AAC1F34041515CBB
:1015F0000A4A5043B0FBF1F005B070470849484330
:10160000FAE7000002030405060708090A0B0C0D9F
:101610000E0F1010010200000010024000127A00AC
:1016200000093D002DE9F84F040070D02078C04D2E
:10163000C00749D06868C0F38100012807D06868F6
:10164000C0F38100022809D16868C00306D5286864
:10165000800339D560680028E7D035E06068B0F5D0
:10166000803F0BD010B1B0F5A02F11D0286820F426
:1016700080302860286820F4802002E0286840F448
:1016800080302860606890B1FFF772FD06460AE07E
:10169000286840F480202860F0E700BFFFF768FD6D
:1016A000801B642873D828688003F7D50CE0FFF707
:1016B0005FFD064605E000BFFFF75AFD801B64286A
:1016C000F0D828688003F7D420789A4E80074FF02E
:1016D00001094FF0000839D5686810F00C0F07D0E9
:1016E0006868C0F38100022809D16868C00306D485
:1016F0002868800714D52069012808D110E02069E6
:10170000B0B1C6F80090FFF733FD074605E00AE1E7
:10171000FFF72EFDC01B0228C4D828688007F7D524
:101720002868616920F0F80040EAC10028600DE0F7
:10173000C6F80080FFF71CFD074604E0FFF718FD20
:10174000C01B022823D828688007F7D42078000718
:101750002CD57948A169D9B1C0F80090FFF708FDF0
:10176000074604E0FFF704FDC01B02280FD8686A93
:101770008007F7D571484FF4FA510068B0FBF1F0DB
:10178000009000BF0098411E0091FAD20EE080E068
:10179000C0F80080FFF7ECFC074604E0FFF7E8FC28
:1017A000C01B022875D8686A8007F7D420784007E4
:1017B00060D5E8690027C00008D4E86940F080508F
:1017C000E861E869012700F0805000905C480168FA
:1017D000C90513D40168834641F480710160FFF7A5
:1017E000C7FC824606E000BFFFF7C2FCA0EB0A0080
:1017F00064284ED8DBF80000C005F5D5E068012864
:101800000AD008B1052813D0286A20F00100286208
:10181000286A20F0040002E0286A40F001002862F3
:10182000E06841F2883B98B1FFF7A2FC82460BE0EA
:10183000286A40F004002862EEE700BFFFF798FC3A
:10184000A0EB0A0159455AD8286A8007F6D50CE062
:10185000FFF78EFC824605E0FFF78AFCA0EB0A0149
:1018600059454CD8286A8007F6D41FB1E86920F0A2
:101870008050E861E06988B36968C1F38101022999
:1018800044D00228C6F8608004D0FFF771FC0446FB
:1018900038E034E0FFF76CFC074604E0FFF768FC33
:1018A000C01B02282BD828688001F7D4206AB0F525
:1018B000803F05D16868A16820F400300843686063
:1018C000D4E908010843696821F474110843686089
:1018D000C6F86090FFF74CFC044606E025E000BF28
:1018E000FFF746FC001B022809D828688001F7D5BD
:1018F0001BE000BFFFF73CFC001B022802D90320BD
:10190000BDE8F88F28688001F4D40EE00128F7D0F4
:101910006868226A00F48031914204D1616A00F45F
:101920007010884201D00120EAE70020E8E70000BB
:10193000001002400000424280044242380200206F
:101940000070004010B5401EB0F1807F01D301202F
:1019500010BD4FF0E02460610F21601700F092F994
:101960000020A06107202061002010BDFEE70000DC
:10197000002202210148FFF7F6BB0000000C0140E5
:10198000012202210148FFF7EEBB0000000C0140DC
:101990003EB500240D480094019402940A498460E5
:1019A000016001250573047505614FF460214460F1
:1019B000C161FEF77DFD0820CDE90005694602946E
:1019C0000248FEF7F3FC3EBD00240140380700202A
:1019D0003EB500240D480094019402940A498460A5
:1019E000016001250573047505614FF460214460B1
:1019F000C161FEF75DFD0320CDE900056946029453
:101A00000248FEF7D3FC3EBD0028014068070020D5
:101A10000C480B494FF44022016005214160002130
:101A20008160C0E903124FF4801242610176417671
:101A300081760122C27601774177FFF773B9000002
:101A400000640040980700202DE9F04786B000248C
:101A500031480094019402940394816941F020017B
:101A60008161816901F020010491816941F01001D7
:101A70008161816901F010010491816941F00401E3
:101A80008161816901F004010491816941F00801DB
:101A900081618069DFF8848000F0080040F23455ED
:101AA0000490002229464046FFF75DFBDFF8709066
:101AB0000022D6214846FFF756FBDFF868A040F227
:101AC0000647002239465046FFF74DFB0095022697
:101AD00001250396CDE9015469464046FFF742FAD5
:101AE000D620CDE90005CDE9024669464846FFF714
:101AF00039FA00970396CDE9015469465046FFF73D
:101B000031FA4FF4E0408DE8310069465046FFF766
:101B100029FA06B0BDE8F08700100240001001402D
:101B200000080140000C0140FEE77047704730B5E7
:101B30000C460546098800F00BF82188030A4A1C68
:101B400022806B5421884A1C2280685430BD0000DA
:101B500070B5094DFF22134605F5807606E000BFFB
:101B600010F8014B54402A5D5A40335D491E89B23A
:101B7000F6D243EA022070BD00000020704700004A
:101B8000002240210148FFF7EEBA000000080140A2
:101B9000012240210148FFF7E6BA00000008014099
:101BA00000224FF480710148FFF7DDBA00100140B8
:101BB000012211020148FFF7D6BA000000100140CF
:101BC000FFF7DCBA30B595B028216846FEF7D3FAA6
:101BD00014210AA8FEF7CFFA18210FA8FEF7CBFAB6
:101BE00001210804CDE9001000240294022504918B
:101BF000CDE907504FF4402009906846FFF712FDE9
:101C00000F20CDE90A059020CDE90C0401210AA896
:101C10000E94FFF72BFC0FA80F951194FFF7B0FB64
:101C200015B030BD704700000148FEF77DBF0000D1
:101C3000980700200148FEF777BF000098070020B2
:101C4000FEE7000000224FF480610148FFF78BBAE5
:101C5000000C0140012291020148FFF784BA000004
:101C6000000C0140002204210148FFF77CBA00006B
:101C7000000C0140012204210148FFF774BA000062
:101C8000000C01400907090E002804DB00F1E020E8
:101C900080F80014704700F00F0000F1E02080F899
:101CA000141D704702E008C8121F08C1002AFAD1AB
:101CB00070477047002001E001C1121F002AFBD1CC
:101CC00070470000F8B50546407B4FF6FF76A97BCC
:101CD000594C06EA0020014361830D20ADF8000055
:101CE00069462846FFF723FF687B95F80EC006EA91
:101CF00000204CEA000CA4F81CC0B4F81AE0002143
:101D0000012216274D480623FF26F4456FD1627045
:101D1000E272217307704370697B8170A97BC17087
:101D20000671A8786073E978A1732979E1736979FC
:101D30002174A9796174E979A174297AE174697AC5
:101D40006175A97AA175E97AE175102802D0112888
:101D500003D004E0FEF700FB01E0FEF7F5FAA07BFC
:101D6000202802D0212803D004E0FEF705FB01E083
:101D7000FEF7FAFAE07B302802D0312803D004E0E5
:101D8000FEF7D8FA01E0FEF7CDFA207C402802D019
:101D9000412803D004E0FEF7BDFA01E0FEF7B2FAF5
:101DA000607C502802D0512803D004E0FFF7F0FEF9
:101DB00001E0FFF7E5FEA07C602802D0612803D097
:101DC00004E0FEF787FA01E0FEF77CFAE07C702879
:101DD00002D0712803D004E0FEF78CFA01E0FEF790
:101DE00081FA607D812803D0842804D005E01AE0C0
:101DF000FFF7C6FD01E0FFF7BBFDA07D822802D002
:101E0000852803D004E0FFF725FF01E0FFF71AFF64
:101E1000E07D832804D0862801D1FFF723FFF8BD99
:101E2000FFF728FFF8BD077043708170C17006711D
:101E300022736170F8BD0000000200203B03002007
:101E40008EB0FFF7A3F9FFF7BDFEFFF7FDFDFFF72B
:101E50009FFDFFF7BDFDFFF7DBFD002082460190EF
:101E6000814680468346074600900C90E948FEF77D
:101E700059FF00250120CDE908500295CDE9065013
:101E800005950A900395049502A9E248FEF760FDC6
:101E9000E048FFF721F8DF4C082640340A2025608F
:101EA000E5602661A560FFF74BF8DB4CDB4B0021BA
:101EB00003F29F22D748FEF7C3FDD64840300068A2
:101EC000512802D052280DD020E0D4492570A1F22B
:101ED000FD2220780B5C1354401CC0B220700828EF
:101EE000F7D313E0CD4A2570A2F2FD21207801EB53
:101EF000000C135C401CC0B28CF80830207008281D
:101F0000F4D301202075C648FFF7DCFEFFF730F957
:101F1000A0EB0800642811D3FFF72AF98046207D42
:101F200010B1012808D009E00BF1010BBBF11E0F25
:101F300004D30120207301E04FF0000BFFF718F9E4
:101F4000A0EB0A00642831D3FFF712F98246E07A49
:101F5000012804D1207D012801D1FEF717FA207B4A
:101F6000012814D10198401C01901E280FD3E5725E
:101F70000098401C0090052802D2FEF70FFA06E0F8
:101F80000A2802D2FEF702FA01E0002000906078F1
:101F9000012801D018B109E0FFF70AFE06E0606AE7
:101FA000401C6062052801D1FFF7FAFDFFF7E0F859
:101FB000C01B32286ED3FFF7DBF807469548603820
:101FC000FEF7E8FB934864216038FEF74BFB91482D
:101FD0006038FEF769FA20830009A0708D486038E8
:101FE000FEF738FC00F02CF9012802D0E5707320D0
:101FF0000BE00120E070FFF7BBF80C99401A322883
:1020000004D3FFF7B5F80C907120A07100F00AF925
:1020100001280CD025717420E07100F01FF901280F
:1020200009D06572607988B1012811D012E00120D1
:1020300020717220F0E7607A18B9607920B1401EF3
:10204000607101206072EDE70120F9E72D2000E0CA
:102050002B202072A079712802D073280BD019E0B0
:102060006E481621FF38017007214170712181707F
:10207000A178C17008E069481621FF380170072176
:10208000417073218170C570E1790171457185716D
:10209000FF21C171FFF76CF8A0EB0900642866D33B
:1020A000FFF766F88146A07971282ED10320A0722F
:1020B000584871212830584BC56006618560C0E9D9
:1020C0000015A0F2863000F5FF7102780A704278A0
:1020D0004A7082788A70C278CA7002790A7142792D
:1020E0004A7182798A71C079C8710A46203301F534
:1020F000C4714848FEF7C8FB0A20FEF721FFA07A0A
:10210000401E10F0FF00A072D2D1A07973282ED10A
:102110000320A0723F48712128303F4BC560066103
:102120008560C0E90015A0F2863000F5FF710278E5
:102130000A7042784A7082788A70C278CA700279CE
:102140000A7142794A7182798A71C079C8710A46E6
:10215000203301F5C4712F48FEF796FB0A20FEF7E5
:10216000EFFEA07A401E10F0FF00A072D2D1FEF761
:10217000FFFFA16A401A6428FFF498AEFEF7F8FF4B
:10218000A062207D012823D1224861212830224BE2
:10219000C56006618560C0E90015A0F28541A0F523
:1021A000C4700A7802704A7842708A788270CA785D
:1021B000C2700979017145718571C571024600F5DA
:1021C000C47120331348FEF75FFB0A20FEF7B8FE08
:1021D0001048992128301622C56006618560C0E943
:1021E0000015A0F5C4700C4B02704170217A81700B
:1021F000C570057145718571FF21C171024600F5F9
:10220000C47120330348FEF73FFB0A20FEF798FE17
:102210004CE600009807002000020020390500204D
:102220003C02002010B500244FF400510348FEF793
:1022300095FF00B90124204610BD0000000C0140AC
:1022400010B500244FF480410348FEF787FF00B922
:102250000124204610BD0000000C014010B50024F0
:102260004FF480510348FEF779FF00B9012420465E
:1022700010BD0000000C0140000000000000000044
:10228000010203040607080900000000010203041C
:10229000B0220008000000203C020000B00100084D
:1022A000E02300083C020020BC090000B41C000828
:1022B000112808C1814001C0804104690C2908E946
:1022C00018A91C091A30091638093660092E700938
:1022D0002F6000FF00C0C101C30302C2C60607C7CA
:1022E00005C5C404CC0C0DCD0FCFCE0E0ACACB0B46
:1022F000C90908C8D81819D91BDBDA1A1EDEDF1F76
:10230000DD1D1CDC14D4D515D71716D6D21213D365
:1023100011D1D010F03031F133F3F23236F6F73715
:10232000F53534F43CFCFD3DFF3F3EFEFA3A3BFB05
:1023300039F9F83828E8E929EB2B2AEAEE2E2FEFB5
:102340002DEDEC2CE42425E527E7E62622E2E32325
:10235000E12120E0A06061A163A3A26266A6A76755
:10236000A56564A46CACAD6DAF6F6EAEAA6A6BABC5
:1023700069A9A86878B8B979BB7B7ABABE7E7FBFF5
:102380007DBDBC7CB47475B577B7B67672B2B373E5
:10239000B17170B050909151935352929656579795
:1023A000559594549C5C5D9D5F9F9E5E5A9A9B5B85
:1023B00099595898884849894B8B8A4A4E8E8F4F35
:1023C0008D4D4C8C448485458747468682424383A5
:1023D0004181809240022201292382101324F400BB
:0400000508000131BD
:00000001FF
