:020000040800F2
:10000000580F00200D020008431C0008611A000868
:10001000411C000829040008591D000800000000C8
:10002000000000000000000000000000951C000817
:100030008D04000800000000451C0008D91C0008C1
:1000400027020008270200082702000827020008EC
:1000500027020008270200082702000827020008DC
:1000600027020008270200082702000827020008CC
:1000700027020008270200082702000827020008BC
:10008000270200082702000827020008411D000877
:100090004D1D00082702000827020008270200085B
:1000A000270200082702000827020008270200088C
:1000B000270200082702000827020008270200087C
:1000C000270200082702000827020008270200086C
:1000D000270200082702000827020008270200085C
:1000E000270200082702000827020008270200084C
:1000F000270200082702000827020008270200083C
:10010000270200082702000827020008270200082B
:10011000270200082702000827020008270200081B
:10012000270200082702000827020008270200080B
:1001300000F002F800F05AF80AA090E8000C82449F
:100140008344AAF10107DA4501D100F04FF8AFF27C
:10015000090EBAE80F0013F0010F18BFFB1A43F0A5
:100160000103184768220000882200000A444FF06B
:10017000000C10F8013B13F0070408BF10F8014B06
:100180001D1108BF10F8015B641E05D010F8016B4B
:10019000641E01F8016BF9D113F0080F1EBF10F8AF
:1001A000014BAD1C0C1B09D16D1E58BF01F801CBD2
:1001B000FAD505E014F8016B01F8016B6D1EF9D555
:1001C0009142D6D37047000000230024002500266A
:1001D000103A28BF78C1FBD8520728BF30C148BFAA
:1001E0000B6070471FB51FBD10B510BD00F058F86B
:1001F0001146FFF7F7FF01F089FE00F076F803B42F
:10020000FFF7F2FF03BC00F07DF8000009488047CB
:1002100009480047FEE7FEE7FEE7FEE7FEE7FEE7E8
:10022000FEE7FEE7FEE7FEE704480549054A064B00
:10023000704700003D1D00083101000858090020EA
:10024000580F0020580B0020580B00204FF00002E0
:1002500000B5134694469646203922BFA0E80C50BC
:10026000A0E80C50B1F12001BFF4F7AF090728BF97
:10027000A0E80C5048BF0CC05DF804EB890028BF13
:1002800040F8042B08BF704748BF20F8022B11F03C
:10029000804F18BF00F8012B7047704770477047B8
:1002A000754600F02BF8AE4605006946534620F02F
:1002B0000700854618B020B5FFF7B6FFBDE820401F
:1002C0004FF000064FF000074FF000084FF0000B12
:1002D00021F00701AC46ACE8C009ACE8C009ACE8C5
:1002E000C009ACE8C0098D46704710B50446AFF3AD
:1002F00000802046BDE81040FFF781BF00487047EE
:10030000F408002001491820ABBEFEE726000200D9
:100310007047000070B5044600688168C943C9078A
:1003200017D1816821F00101816000F0B9FF054615
:100330000AE000BF00F0B4FF401B022804D9206887
:100340008068C043C00706D020688068C043C007EB
:10035000F0D0002070BDA06A40F01000A062E06AFA
:1003600040F00100E062012070BD0000F8B50026F9
:100370000446009600688168C943C9072DD081688A
:1003800041F001018160164816490068B0FBF1F0A8
:1003900000E0401E00900028FBD100F081FF0546E0
:1003A00016E000BF00F07CFF401B022810D9206837
:1003B0008068C043C0070BD0A06A40F01000A06264
:1003C000E06A40F00100E06284F824600120F8BD9A
:1003D00020688068C043C007E4D10020F8BD000059
:1003E0003802002040420F0000224FF40071014803
:1003F00000F051BF0010014001225102014800F0FD
:100400004ABF00000010014000224FF480710148F3
:1004100000F041BF0010014001221102014800F02C
:100420003ABF000000100140FEE70000002240211A
:10043000014800F030BF00000010014001224021BF
:10044000014800F028BF0000001001400022802178
:10045000014800F020BF000000100140012280216F
:10046000014800F018BF00000010014000224FF4C6
:100470000041014800F00FBF000801400122D103F4
:10048000014800F008BF000000080140704700006C
:1004900000224FF40071014800F0FDBE000C014045
:1004A00001225102014800F0F6BE0000000C01409C
:1004B000F8B50024009490F824202546012A12D093
:1004C000012280F824204A681F23072A0DD20668DB
:1004D000776B521E02EB820293409F430B6893405E
:1004E0001F43776319E00220F8BD06680D2A0AD27F
:1004F000376BD21F02EB820293409F430B689340FD
:100500001F43376309E0F76A0D3A02EB820293401A
:100510009F430B6893401F43F7620A6807230668EE
:100520000A2A0AD3F7680A3A02EB420293409F4331
:100530008B6893401F43F76008E0376902EB420283
:1005400093409F438B6893401F4337610A68102A8A
:1005500001D0112A20D1124B02689A4217D1936818
:100560001B0219D4936843F40003936009681029AF
:1005700012D10C490C4A0968B1FBF2F101EB81017F
:10058000490000E0491E00910029FBD104E0816A86
:1005900041F020018162012480F824502046F8BDFA
:1005A000002401403802002040420F000068C06C67
:1005B000704700002DE9F04104004FF000057FD0A6
:1005C000A06A002628B9E66284F82460204600F07C
:1005D00081F82046FFF79EFEA16AC90600D420B12B
:1005E000A06A40F01000A0626AE0A16A21F488517C
:1005F00041F00201A162334923688B42E16904D1D1
:10060000B1F5402F01D14FF40021277B4FF4807CBE
:1006100041EA470261680A43A168614508D001299F
:1006200006D0002194F814E0BEF1010F02D00AE0D8
:100630006146F7E7C7B1A76A47F02007A762E76AF4
:1006400047F00107E7625F6827F469470F435F607F
:10065000236899681C4F394011439960A16861452E
:100660000BD0012909D00CE0DFF860E0A7690EEBA0
:1006700047370F4347F40061E5E7218A0D05A5F5EB
:1006800080152168CB6A23F470032B43CB62216869
:1006900089680F4B1940914208D1E662A16A21F0A6
:1006A000020141F00101A162BDE8F081A06A20F0E1
:1006B000020040F01000A062E06A40F00100E06239
:1006C0000120F1E7003C0140FDF7E1FF00E0FFFF02
:1006D000FE0E1FFF10B586B000210091019102911E
:1006E0000391234A016823480324914215D181696B
:1006F00041F400718161816901F4007104918169A3
:1007000041F0100181618069694600F01000049099
:100710000120CDE90004184826E0184A914225D16D
:10072000816941F480618161816901F48061049192
:10073000816941F004018161816901F00401049142
:10074000816941F0080181618069694600F0080013
:1007500004901020CDE90004094800F09BFC022021
:10076000CDE900046946074800F094FC06B010BDCE
:100770000024014000100240001001400028014008
:1007800000080140000C01402DE9F84300270D4608
:100790000446009700F084FD804620688168C90502
:1007A00008D5A06A40F02000A06284F824700120DF
:1007B000BDE8F8834168C90503D4C06A10F4700F1E
:1007C0002AD0022000F00AFE3B490968B1FBF0F68E
:1007D0002068036939490B424FEA61014FEAA112CF
:1007E0001FD1C3684FEA611C13EA0C0F19D10369CA
:1007F0000B4225D1C068104222D1142023E0681C8E
:100800000AD02DB100F04CFDA0EB0800A84203D99E
:1008100020680068800725D5206800688007EED52D
:100820002DE003690B4202D1C168114206D0026972
:1008300023490A4206D1C068084203D1542002E08D
:10084000292000E0FC204643009816E0681C11D0E7
:100850002DB100F025FDA0EB0800A8420AD90098B0
:10086000B04207D2A06A40F00400A06284F824706D
:1008700003209DE70098401C0090B042E6D3216819
:100880006FF012000860A06A40F40070A062206857
:100890008068C0F3424007280CD1207B50B9A06A81
:1008A00020F48070A062A06AC00403D4A06A40F063
:1008B0000100A06200207BE7380200202449922436
:1008C0004992240070B5044690F8240001280DD008
:1008D000012084F824002046FFF748FD02004FF075
:1008E000000005D084F82400104670BD022070BDC1
:1008F000A16A40F20123994341F48071A1621F4D26
:1009000023681F49AB4218D10E6816F4702F14D01B
:10091000A66A46F48016A6620E68760505D5A66A14
:1009200026F4005646F48056A662A66AF6040AD556
:10093000E66A26F00606E66206E0A66A26F4801657
:10094000A6625E68E9E7E06284F824006FF00200C6
:10095000186020688368C3F34243072B05D1A8427F
:1009600008D1096811F4702F04D0816841F4801116
:100970008160B9E7816841F4A001F9E700280140EE
:100980000424014010B5044690F82400012807D043
:10099000012084F824002046FFF7BCFC10B107E0DA
:1009A000022010BDA16A21F4885141F00101A16229
:1009B000002184F8241010BDF0B590F82050046890
:1009C000A468012D05D0022D03D0416A41F4802195
:1009D0004DE014F0406F01D1E50045D5C4F301644A
:1009E0000125A5401D608D684FF4C0739DB1CE6890
:1009F00035434E6845EAC605066803EB0417F55112
:100A00004FF4C275076805EB04150E697E51097D28
:100A1000012905D009E00E88CD6845EA4655EBE787
:100A200001684E5946F480764E511179D2F805503E
:100A30004FF4C67641EA0521056806EB0416A95174
:100A40001178D2F801204FF4C47541EA02210268FE
:100A500005EB04155151006803EB0411425842F0B4
:100A6000010242500020F0BD416A41F40011416290
:100A70000120F0BD10B590F820300268012B07D09E
:100A8000022B05D0416A41F480214162012010BD52
:100A9000D2F8000240F00100C2F80002087D00F028
:100AA0001F0301209840D2F81C328343C2F81C3245
:100AB000CB69B3B9D2F80C328343C2F80C328C89BB
:100AC0004B6864F31F434C6902EBC404C4F8403222
:100AD0000C890B6864F31F434C6902EBC404C4F82F
:100AE0004432CB69012B16D1D2F80C320343C2F841
:100AF0000C320C884B6864F31F434C6902EBC4044E
:100B0000C4F840320C89CB6864F31F434C6902EB94
:100B1000C404C4F844328B69002BD2F804320FD0DD
:100B200053EA0003C2F804320B69002BD2F81432E6
:100B300008D00343C2F81432096A012904D008E03E
:100B40008343EFE78343F5E7D2F81C120143C2F871
:100B50001C12D2F8000220F00100C2F800020020AE
:100B600010BD704770B590F82040012C05D0022CC4
:100B700003D0416A41F4802128E0046809B3246964
:100B8000A40720D04FF4D874056804EB01142D5944
:100B900015F00405956005682D591AD0ED085560CB
:100BA00005682C5904F00204D4604FF4DA74056827
:100BB00004EB01142E5906F00F06082E0CD308255D
:100BC0000DE0E468DCE7416A41F400114162012074
:100BD00070BD6D0D1560E3E72D5905F00F0515612A
:100BE00005682D59C5F30725956105682C59240C16
:100BF00054614FF4DC72046802EB0112A4581C70BB
:100C00000468A458240A5C700468A458240C9C70DE
:100C10000468A258120EDA704FF4DE72046802EB18
:100C20000112A4581C710468A458240A5C71046859
:100C3000A458240C9C710468A258120EDA71006842
:100C400029B1016941F020010161002070BDC16836
:100C500041F02001C160F8E72DE9F05F054600682A
:100C600000244669D0F804908768D0F80CB0D0F81A
:100C700010A0D0F81880F10748D0F90714D001214E
:100C80008160B80703D5284600F0EBF90CE078073F
:100C900002D54FF4006407E0380702D54FF48054C2
:100CA00002E0284600F0DCF9F80516D529684FF473
:100CB00080708860B80503D5284600F0D4F90CE0B0
:100CC000780502D544F4005407E0380502D544F411
:100CD000804402E0284600F0C5F9F80316D52968DB
:100CE0004FF480308860B80303D5284600F0BDF982
:100CF0000CE0780302D544F4004407E0380302D541
:100D000044F4803402E0284600F0AEF9300707D5FD
:100D10005FEACB6004D52968102044F40074C860F1
:100D200070074FF0080707D55FEA0B7004D52868F5
:100D3000C760284600F062F9B00706D52868C06889
:100D4000800702D0284600F05AF9700607D55FEAFE
:100D5000CA6004D52968102044F480640861B00694
:100D600007D55FEA0A7004D528680761284600F0B5
:100D700047F9F00606D528680069800702D02846A2
:100D800000F03FF9B00308D55FEAC96005D52968CE
:100D900010204860284600F035F9F00307D55FEAD7
:100DA000097004D528684760284600F05FF93004D0
:100DB00046D55FEA497040D5F00504D55FEAC870B2
:100DC00001D044F00104B00504D55FEA887001D574
:100DD00044F00204700504D55FEA487001D544F080
:100DE0000404300529D518F0700F26D008F07000E3
:100DF000402815D006DC102809D020280AD0302839
:100E000016D10AE050280ED0602811D10EE044F02F
:100E100008040DE044F010040AE044F0200407E068
:100E200044F0400404E044F0800401E044F48074A1
:100E30002868816921F07001816129680420486077
:100E4000002C05D0686A204368622846FFF789FEB7
:100E5000BDE8F09F70B5040003D094F8200010B1F5
:100E600004E0012070BD204600F082F8206801688F
:100E700041F00101016000F013FA0546052604E087
:100E800000F00EFA401B0A2811D820684068C007FD
:100E9000F6D02068016821F00201016000F000FA3C
:100EA00005460BE000F0FCF9401B0A2806D9606AF1
:100EB00040F40030606284F82060D2E72068406827
:100EC0008007EFD4207E0128206801683DD021F002
:100ED00080010160607E01282068016838D021F01F
:100EE00040010160A07E01282068016833D021F014
:100EF00020010160E07E0128206801682ED041F0C9
:100F000010010160207F01282068016829D021F0AC
:100F100008010160607F01282068016824D021F069
:100F200004010160D4E902010843D4E90412114329
:100F300008436168491E08432168C8610020606257
:100F4000012084F82000002070BD41F08001C0E73E
:100F500041F04001C5E741F02001CAE721F010014E
:100F6000CFE741F00801D4E741F00401D9E70000E0
:100F700010B586B0002100910191029103910068A3
:100F80001B49884232D11B48C16941F00071C161DF
:100F9000C16901F000710491816941F0040181612E
:100FA0008069154C00F0040004904FF4006000903C
:100FB0006946204600F06EF8A014009002200190CF
:100FC000032003906946204600F064F80022114691
:100FD000132000F0D1F9132000F0C0F900221146CF
:100FE000142000F0C9F9142000F0B8F906B010BDC3
:100FF0000064004000100240000801407047704744
:10100000704770477047000070B5044690F82000A4
:10101000012804D0606A40F40020606218E00220D9
:1010200084F820002068016821F00101016000F0CF
:1010300037F905460EE000BF00F032F9401B0A28E0
:1010400008D9606A40F400306062052084F820000E
:10105000012070BD20684068C007EDD1606270BD9E
:10106000704770477047704770477047704700007F
:1010700070B5044600F014F90546601C02D004481F
:101080000078044400F00CF9401BA042FAD370BD74
:101090002C0200202DE9F84FDFF8C8910024A9F1B7
:1010A000040B23460F2709F1040AABF1040ED1E02B
:1010B0000125A54006EA0502AA4276D1DFF8A8C1BB
:1010C0004E68A6EB0C0866452BD00DDC032E34D001
:1010D00005DC36B3012E19D0022E2FD11BE0112EC4
:1010E00016D0122E2AD119E0B8F5881F19D006DCC7
:1010F000B8F5803F15D0B8F5801F1FD111E0B8F5C5
:10110000001F0ED0B8F5041F18D10AE0CB6815E017
:10111000CB681B1D12E0CB6808330FE0CB680C33A3
:101120000CE08B682BB1012B4FF0080303D0456115
:1011300004E0042302E0056100E00023FF2A01D857
:10114000064601E000F104064FEA840501D9A5F145
:101150002005D6F8008007FA05FC28EA0C0803FAF7
:1011600005F548EA0508C6F800804D68ED0070D521
:101170003E4DAE6946F00106AE61AD6924F003064E
:1011800005F0010500953A4D06EB050CDCF808501A
:10119000A607360F07FA06F825EA0805DFF8D48017
:1011A000404503D14FF0000825E052E0DFF8C88049
:1011B000404502D14FF001081DE0DFF8C0804045F6
:1011C00002D14FF0020816E0DFF8B480404502D1AA
:1011D0004FF003080FE0DFF8AC80404502D14FF03C
:1011E000040808E0DFF8A080404502D14FF0050870
:1011F00001E04FF0060808FA06F848EA0508CCF8BE
:1012000008804D68D9F80060ED024D4601D51643BF
:1012100000E096432E604D68DAF80060AD02554656
:1012200001D5164300E096432E604D68DBF8006060
:10123000AD035D4601D5164300E096432E604D6830
:10124000DEF80060ED03754601D5164300E09643D5
:101250002E60641C0A681646E2407FF429AFBDE8A0
:10126000F88F000008040140000011100010024037
:101270000000014000080140000C01400010014046
:101280000014014000180140001C01408068084023
:1012900000D0012070470AB1016170470904FBE7E3
:1012A00001488068704700002C02002002488168D5
:1012B00002781144816070472C020020074810B565
:1012C000016841F010010160032000F075F8002072
:1012D00000F006F800F024F8002010BD00200240C5
:1012E00070B50D4D04464FF47A712878B1FBF0F0DB
:1012F0000A490968B1FBF0F000F09EFB48B9102CD8
:1013000007D200222146501E00F036F800206C6003
:1013100070BD012070BD00002C02002038020020AA
:101320000C4808B5816941F001018161816901F0D2
:1013300001010091C16941F08051C161C06900F0B3
:10134000805000900448416821F0E06141F0007154
:10135000416008BD0010024000000140002809DB88
:1013600000F01F02012191404009800000F1E020BF
:10137000C0F8001170470000F0B40E4B1B680C461B
:10138000C3F30223C3F10705042D00D90425191D59
:10139000072901D2002300E0DB1E012606FA05F131
:1013A000491E214099409E40761E16403143F0BCB4
:1013B00000F0F4BC0CED00E0064900F007020868FC
:1013C0004FF6FF03184040EA0220034A104308602A
:1013D000704700000CED00E00000FA0510B5014672
:1013E0000020284C04292FD00BDC012930D0022901
:1013F00029D100F05BF96168C1F38131491C4900D2
:101400001FE0082920D010291DD161682268D2016F
:1014100019D51D48C1F38342C903805C0AD56168B0
:10142000194AC1F34041921E515C184AB2FBF1F1D6
:10143000484301E0164948436168490203D440002B
:101440000321B0FBF1F010BDBDE8104000F03EB943
:10145000226AC2F30121012903D1920701D5C803F1
:1014600010BD022905D1626A920702D549F64040B3
:1014700010BD0329FCD121688903F9D54FF224401E
:1014800010BD000000100240A423000800127A00E2
:1014900000093D002DE9F84305460078354CC007AA
:1014A00054D0E0690026C00008D4E06940F08050C4
:1014B000E061E069012600F0805000902E4801684C
:1014C000C90512D40168804641F480710160FFF7BC
:1014D000E7FE074605E000BFFFF7E2FEC01B6428F9
:1014E00023D8D8F80000C005F6D5206A10F4407063
:1014F00021D0A98801F4407181421CD0206A1F4983
:10150000012220F440700A6000220A602062C007B5
:1015100011D0FFF7C5FE074641F2883808E000BF4A
:10152000FFF7BEFEC11B414502D90320BDE8F88389
:10153000206A8007F4D5206A696820F44070084367
:1015400020621EB1E06920F08050E06128788007B9
:1015500005D56068A96820F4404008436060287899
:10156000C00605D56068696920F4800008436060A2
:101570000020DBE7001002400070004040044242BF
:101580002DE9F0470F46050061D0434E306800F06A
:101590000700B84209D2306820F0070038433060B5
:1015A000306800F00700B84251D128683B4C8107F1
:1015B00012D5400703D5606840F4E0606060287889
:1015C000000703D5606840F4605060606068A968F7
:1015D00020F0F000084360602878C00728D06868D1
:1015E000012810D02168022810D0890700292EDA9E
:1015F000616821F0030101436160FFF751FE8046FD
:1016000041F288390DE021688903EFE78901EDE7B0
:10161000FFF746FEA0EB0801494502D90320BDE8CB
:10162000F0876068696800F00C00B0EB810FEFD1C3
:10163000306800F00700B8420BD9306820F007008E
:1016400038433060306800F00700B84201D0012014
:10165000E5E72878400705D56068E96820F4E06090
:10166000084360602878000706D56068296920F47F
:10167000605040EAC100606000F028F86168084AE4
:10168000C1F30311515CC840064908600648006870
:10169000FFF726FE0020C2E70020024000100240B3
:1016A000B423000838020020300200200448054915
:1016B00000684968044AC1F3C221515CC8407047C0
:1016C0003802002000100240C42300080E4A51686E
:1016D0000E4801F00C03042B11D0082B0FD10C483D
:1016E000C1F38343C903C05C0AD55168084AC1F3FA
:1016F0004041921E515C054A5043B0FBF1F07047E7
:1017000004494843704700000010024000127A006C
:101710009223000800093D002DE9F84F040070D025
:101720002078C04DC00749D06868C0F38100012807
:1017300007D06868C0F38100022809D16868C00337
:1017400006D52868800339D560680028E7D035E0E1
:101750006068B0F5803F0BD010B1B0F5A02F11D06C
:10176000286820F480302860286820F4802002E077
:10177000286840F480302860606890B1FFF790FDE1
:1017800006460AE0286840F480202860F0E700BFA1
:10179000FFF786FD801B642873D828688003F7D57F
:1017A0000CE0FFF77DFD064605E000BFFFF778FD82
:1017B000801B6428F0D828688003F7D420789A4EDC
:1017C00080074FF001094FF0000839D5686810F024
:1017D0000C0F07D06868C0F38100022809D168683F
:1017E000C00306D42868800714D52069012808D1D1
:1017F00010E02069B0B1C6F80090FFF751FD074630
:1018000005E00AE1FFF74CFDC01B0228C4D8286898
:101810008007F7D52868616920F0F80040EAC10028
:1018200028600DE0C6F80080FFF73AFD074604E0A7
:10183000FFF736FDC01B022823D828688007F7D49D
:10184000207800072CD57948A169D9B1C0F800905B
:10185000FFF726FD074604E0FFF722FDC01B022824
:101860000FD8686A8007F7D571484FF4FA510068BD
:10187000B0FBF1F0009000BF0098411E0091FAD239
:101880000EE080E0C0F80080FFF70AFD074604E0A4
:10189000FFF706FDC01B022875D8686A8007F7D4D9
:1018A0002078400760D5E8690027C00008D4E869BF
:1018B00040F08050E861E869012700F08050009016
:1018C0005C480168C90513D40168834641F48071FE
:1018D0000160FFF7E5FC824606E000BFFFF7E0FC91
:1018E000A0EB0A0064284ED8DBF80000C005F5D54F
:1018F000E06801280AD008B1052813D0286A20F032
:1019000001002862286A20F0040002E0286A40F002
:1019100001002862E06841F2883B98B1FFF7C0FC03
:1019200082460BE0286A40F004002862EEE700BF20
:10193000FFF7B6FCA0EB0A0159455AD8286A800780
:10194000F6D50CE0FFF7ACFC824605E0FFF7A8FCFB
:10195000A0EB0A0159454CD8286A8007F6D41FB17C
:10196000E86920F08050E861E06988B36968C1F3F4
:101970008101022944D00228C6F8608004D0FFF714
:101980008FFC044638E034E0FFF78AFC074604E0A9
:10199000FFF786FCC01B02282BD828688001F7D4EB
:1019A000206AB0F5803F05D16868A16820F4003056
:1019B00008436860D4E908010843696821F4741198
:1019C00008436860C6F86090FFF76AFC044606E0CA
:1019D00025E000BFFFF764FC001B022809D8286837
:1019E0008001F7D51BE000BFFFF75AFC001B02285F
:1019F00002D90320BDE8F88F28688001F4D40EE0F6
:101A00000128F7D06868226A00F48031914204D13D
:101A1000616A00F47010884201D00120EAE70020DA
:101A2000E8E7000000100240000042428004424209
:101A3000380200200070004010B5401EB0F1807FD9
:101A400001D3012010BD4FF0E02460610F21601729
:101A500000F0A4F90020A06107202061002010BD43
:101A6000FEE7000000224FF480610148FFF713BC3D
:101A700000100140012291020148FFF70CBC000058
:101A8000001001403EB500240D48009401940294DA
:101A90000A498460016001250573047505614FF4EE
:101AA00060214460C161FEF785FD0A20CDE9000593
:101AB000694602940248FEF7FBFC3EBD002401404B
:101AC000380800203EB500240D480094019402948B
:101AD0000A498460016001250573047505614FF4AE
:101AE00060214460C161FEF765FD0420CDE9000579
:101AF000694602940248FEF7DBFC3EBD0028014027
:101B0000680800200C480B494FF440220160052171
:101B1000416000218160C0E903124FF480124261EC
:101B20000176417681760122C27601774177FFF70F
:101B300091B9000000640040980800202DE9F04FA2
:101B400085B000243948009401940294039481697B
:101B500041F020018161816901F0200104918169D6
:101B600041F010018161816901F0100104918169E6
:101B700041F004018161816901F0040104918169EE
:101B800041F0080181618069DFF8A49000F008004D
:101B90004FF4FE560490002231464846FFF77BFB87
:101BA000DFF890A04FF40747002239465046FFF770
:101BB00072FBDFF884B04FF4787800224146584633
:101BC000FFF769FB0125CDE90054694650460295AF
:101BD000FFF760FACDE900650226CDE902466946C5
:101BE0004846FFF757FA00970396CDE90154694636
:101BF0005046FFF74FFA04208DE8310069460F4840
:101C0000FFF748FA18208DE8310069465846FFF77B
:101C100041FACDF800800396CDE901546946584653
:101C2000FFF738FA05B0BDE8F08F00000010024061
:101C30000010014000080140000C01400014014068
:101C4000FEE77047704730B50C460546098800F03E
:101C50000BF82188030A4A1C22806B5421884A1CF5
:101C60002280685430BD000070B5094DFF22134634
:101C700005F5807606E000BF10F8014B54402A5D60
:101C80005A40335D491E89B2F6D243EA022070BD44
:101C90002C0000207047000000224FF480710148A2
:101CA000FFF7F9BA00080140012211020148FFF7CD
:101CB000F2BA00000008014000224FF48071014890
:101CC000FFF7E9BA000C0140012211020148FFF7B9
:101CD000E2BA0000000C0140FFF7E8BA30B595B059
:101CE00028216846FEF7B2FA14210AA8FEF7AEFAD8
:101CF00018210FA8FEF7AAFA01210804CDE9001067
:101D00000024029402250491CDE907504FF44020AD
:101D100009906846FFF700FD0F20CDE90A059020E5
:101D2000CDE90C0401210AA80E94FFF729FC0FA8A5
:101D30000F951194FFF7AEFB15B030BD7047000052
:101D40000148FEF789BF0000980800200148FEF70F
:101D500083BF000098080020FEE7000000224FF437
:101D600080510148FFF797BA00100140012211038A
:101D70000148FFF790BA00000010014000224FF424
:101D800000610148FFF787BA001001400122D1022B
:101D90000148FFF780BA0000001001400907090E52
:101DA000002804DB00F1E02080F80014704700F008
:101DB0000F0000F1E02080F8141D7047F8B50546CB
:101DC000407B4FF6FF76A97B4E4C06EA002001438C
:101DD000A1830D20ADF8000069462846FFF733FFC8
:101DE000687B95F80EC006EA00204CEA000CA4F8C7
:101DF0001EC0B4F81CE00021012216274248062329
:101E0000FF26F44575D162706273A1730770437049
:101E1000697B8170A97BC1700671A878E073E9784D
:101E20002174297961746979A174A979E174E979D6
:101E30002175297A6175697AE175A97A2176E97A3D
:101E40006176102802D0112803D004E0FEF7F6FADC
:101E500001E0FEF7EBFA207C202802D0212803D0F5
:101E600004E0FEF7FBFA01E0FEF7F0FA607C3028B0
:101E700002D0312803D004E0FEF7CEFA01E0FEF7ED
:101E8000C3FAA07C402802D0412803D004E0FEF72A
:101E9000B3FA01E0FEF7A8FAE07C502802D05128FE
:101EA00003D004E0FFF700FF01E0FFF7F5FEE07D5F
:101EB000812802D0842803D004E0FFF7DBFD01E095
:101EC000FFF7D0FD207E822802D0852803D004E0D1
:101ED000FFF74CFF01E0FFF741FF607E832805D04C
:101EE000862801D1FFF74AFFF8BD02E0FFF74EFF59
:101EF000FAE7077043708170C1700671A273617058
:101F0000F2E70000000000203B0300208EB0FFF746
:101F1000D5F9FFF7E3FEFFF711FEFFF7B3FDFFF77B
:101F2000D1FDFFF7EFFD00208246029081468046FA
:101F30000090074601900D90FE48FEF78BFF0025AC
:101F40000120CDE9095006950395049505950B9060
:101F5000CDE9075003A9F748FEF78CFDF548FFF7D8
:101F600053F8F44E4FF0080B40360A203560F56008
:101F7000C6F810B0B560FFF77BF8EF4CEF4B0021CF
:101F800003F52872EB48FEF7EDFD3068512802D0CA
:101F900052280CD01EE0EA49E84A25702078135CEC
:101FA0000B54401CC0B220700828F7D312E0E4495B
:101FB000DFF888C3257020780B181CF80020401C1F
:101FC000C0B21A7220700828F5D30120A075DC4831
:101FD000FFF7F4FE306881280DD1D8492570A1F1B2
:101FE000FF0220780B5C1354401CC0B220700828FC
:101FF000F7D30120E072FFF753F9A0EB0800642843
:1020000011D3FFF74DF98046A07D10B1012808D00B
:1020100009E00198401C01901E2804D30120A07300
:1020200001E000200190FFF73BF9A0EB0A006428D3
:1020300031D3FFF735F98246607B012804D1A07DBA
:10204000012801D1FEF724FAA07B012814D10298BF
:10205000401C02901E280FD365730098401C00900E
:10206000052802D2FEF71CFA06E00A2802D2FEF783
:102070000FFA01E0002000906078012801D018B12B
:1020800009E0FFF721FE06E0606A401C6062052857
:1020900001D1FFF711FEFFF703F9C01B322868D307
:1020A000FFF7FEF80746A3486038FEF70BFCA1488F
:1020B00064216038FEF768FB9E486038FEF776FAC8
:1020C00060830009A0709B486038FEF75BFCE07AF3
:1020D000012801D070B123E09848FF38807880282B
:1020E00002D0812803D01BE0FEF7C0F918E0FEF70C
:1020F000C5F915E000F034F9012803D0E57073202C
:10210000A071F1E70120E070FFF7CAF80D99401ABD
:10211000322805D3FFF7C4F80D907120A071E6E7CF
:1021200000F012F901280CD025717420E07100F044
:1021300023F9012809D06572607988B1012811D08E
:1021400012E0012020717220F0E7607A18B96079FE
:1021500020B1401E607101206072EDE70120F9E7B7
:102160002D2000E02B202072A079712802D0732846
:102170000AD017E0734816210170072141707121C0
:102180008170A178C17007E06E48162101700721A7
:10219000417073218170C570E1790171457185715C
:1021A000FF21C171FFF77CF8A0EB090064286CD314
:1021B000FFF776F88146A079712831D1E07A0128BD
:1021C00063D00320A0725B48712128305A4BC56050
:1021D000C0F810B08560C0E900155A48203300F2FD
:1021E000FD2102780A7042784A7082788A70C2783B
:1021F000CA7002790A7142794A7182798A71C0790A
:10220000C8710A4601F289114A48FEF7D5FB0A2037
:10221000FEF72EFFA07A401E10F0FF00A072D2D170
:10222000A079732831D1E07A01282ED00320A07242
:10223000404871212830404BC560C0F810B085601F
:10224000C0E900153F48203300F2FD2102780A70F2
:1022500042784A7082788A70C278CA7002790A71AC
:1022600042794A7182798A71C079C8710A4601F24D
:1022700089113048FEF7A0FB0A20FEF7F9FEA07A8C
:10228000401E10F0FF00A072D2D1FFF709F8A16A3A
:10229000401A6428FFF472AEFFF702F8A062A07D36
:1022A000012824D1234861212830234BC560C0F880
:1022B00010B08560C0E90015A0F28551A0F2891028
:1022C0000A7802704A7842708A788270CA78C2703E
:1022D0000979017145718571C571024600F2891154
:1022E00020331448FEF768FB0A20FEF7C1FE1148B0
:1022F000992128301622C560C0F810B08560C0E969
:102300000015A0F289100C4B02704170217A817087
:10231000C570057145718571FF21C171024600F2DA
:10232000891120330348FEF747FB0A20FEF7A0FE81
:1023300024E6000098080020000000203806002055
:102340003C0200203A04002010B500240821034874
:10235000FEF79CFF00B90124204610BD000C01408F
:1023600010B5002404210348FEF790FF00B90124B2
:10237000204610BD0014014010B500241021034870
:10238000FEF784FF00B90124204610BD000C014077
:10239000010202030405060708090A0B0C0D0E0FC3
:1023A0001010010202030405060708090A0B0C0DB0
:1023B0000E0F1010000000000000000001020304D6
:1023C000060708090000000001020304EC230008CE
:1023D000000000203C0200006C0100081C250008E1
:1023E0003C0200201C0D0000C801000891022301DE
:1023F0002808C1814001C0804104690C2908E918FE
:10240000A91C091A30091638093660092E70092FDF
:102410006000FF00C0C101C30302C2C60607C705B2
:10242000C5C404CC0C0DCD0FCFCE0E0ACACB0BC940
:102430000908C8D81819D91BDBDA1A1EDEDF1FDD20
:102440001D1CDC14D4D515D71716D6D21213D311F0
:10245000D1D010F03031F133F3F23236F6F737F5F0
:102460003534F43CFCFD3DFF3F3EFEFA3A3BFB3980
:10247000F9F83828E8E929EB2B2AEAEE2E2FEF2D80
:10248000EDEC2CE42425E527E7E62622E2E323E130
:102490002120E0A06061A163A3A26266A6A767A550
:1024A0006564A46CACAD6DAF6F6EAEAA6A6BAB69C0
:1024B000A9A86878B8B979BB7B7ABABE7E7FBF7DA0
:1024C000BDBC7CB47475B577B7B67672B2B373B170
:1024D0007170B050909151935352929656579755B0
:1024E0009594549C5C5D9D5F9F9E5E5A9A9B5B9900
:1024F000595898884849894B8B8A4A4E8E8F4F8D00
:102500004D4C8C44848545874746868242438341AF
:0C251000818033400182101324F400008D
:0400000508000131BD
:00000001FF
